:040000005EEF00F0BF
:100008004882FACF07F0FBCF08F0E1CF09F0E2CF42
:100018000AF0D9CF0BF0DACF0CF0F3CF0DF0F4CF14
:100028000EF0F29EF28C7C0ED6601DEF00F01FEFF2
:1000380000F021EF00F07C0ED66EE10ED76027EFBE
:1000480000F029EF00F02BEF00F0E10ED76EF2A4DC
:1000580030EF00F032EF00F035EF00F0A7EC02F0DF
:10006800F294F2A23AEF00F03CEF00F04AEF00F011
:10007800AFEC05F0020AD8B444EF00F046EF00F008
:1000880049EF00F0020E9DEC05F0F292F28EF28C30
:100098000EC0F4FF0DC0F3FF0CC0DAFF0BC0D9FF90
:1000A8000AC0E2FF09C0E1FF08C0FBFF07C0FAFF72
:0800B8004892110087EF04F0EB
:1003000000203E5741544552494E4720504C414EE3
:1003100054533C000053797374656D20496E6974C1
:1003200069616C2E2E2E0000203E434845434B4908
:100330004E47204D4F4953543C000020506C616E95
:1003400074205761746572696E670000203E4944ED
:100350004C452053544154453C00000088EF02F0C6
:10036000A1EC05F03DEC04F08CEC05F020EE35F04E
:1003700010EE1BF0070EDBCFE3FFE806FCE220EEF9
:100380002DF010EE23F0070EDBCFE3FFE806FCE2D2
:100390001B0E116E000E126E0BEC03F0230E116E8D
:1003A000000E126E0BEC03F0C7EC04F048EC03F007
:1003B00076EC05F0010E116E010E84EC03F03B0E9D
:1003C000136E030E146E12EC04F0010E116E020E89
:1003D00084EC03F0150E136E030E146E12EC04F091
:1003E0000B0E1A6E260E196E5E0EE82EFED7192E13
:1003F000FCD71A2EFAD7ABEC05F0010E99EC05F0FC
:10040000A6EF02F0530E43EC05F076EC05F0010E7A
:10041000116E010E84EC03F04C0E136E030E146E7D
:1004200012EC04F095EC05F082EC05F0A9EC05F077
:10043000E806D8B41EEF02F020EF02F016EF02F04B
:10044000A6EF02F0570E43EC05F091EC05F076ECC8
:1004500005F0010E116E010E84EC03F0010E136E17
:10046000030E146E12EC04F038EF02F07DEC05F090
:10047000A9EC05F0020AD8B440EF02F042EF02F016
:1004800036EF02F0A6EF02F04D0E43EC05F076ECED
:1004900005F0010E116E010E84EC03F0280E136EB0
:1004A000030E146E12EC04F095EC05F087EC05F0E9
:1004B0000B0E1A6E260E196E5E0EE82EFED7192E42
:1004C000FCD71A2EFAD74EEC05F011C02BF012C053
:1004D0002CF0E90E2B5CFD0E2C58D8A072EF02F028
:1004E00074EF02F078EF02F0030E2C6EE80E2B6E24
:1004F0002B5043EC05F02BC010F02CC011F0B5ECE4
:1005000003F0A6EF02F0000E99EC05F0A6EF02F062
:10051000A9EC05F0196E1A6A1A50000AD8B493EFC4
:1005200002F083EF02F01950000AD8B4B0EF01F0E6
:10053000010AD8B402EF02F0030AD8B422EF02F0A5
:10054000010AD8B444EF02F083EF02F01200000E6B
:10055000066E0650080D650EF324D96E000EF420C9
:10056000DA6EDE2A000EDD220650080D600EF3243E
:10057000D96E000EF420DA6E0650080D650EF324D5
:10058000E16E000EF420E26EDE50E65CDE50E658CE
:10059000D8A0CDEF02F0CFEF02F001EF03F006504C
:1005A000080D620EF324D96E000EF420DA6EDE50D0
:1005B000DE10D8B4DEEF02F0E0EF02F001EF03F05E
:1005C0000650080D650EF324D96E000EF420DA6E85
:1005D000000EDE6E000EDD6E0650080D620EF32476
:1005E000D96E000EF420DA6E02D801EF03F0050098
:1005F000FA6EDE50FD6EDE50FE6EF850FF6EFA5061
:100600001200062A040E066408EF03F00AEF03F056
:10061000A9EF02F01200050E466011EF03F013EF90
:1006200003F047EF03F020EE02F01150D9261250EC
:10063000DA22DE50DE10D8B420EF03F022EF03F010
:1006400047EF03F011C0D9FF12C0DAFFDE50DE1011
:10065000D8B42DEF03F02FEF03F047EF03F011C0F4
:10066000D9FF12C0DAFF4650080D600EF324E16E88
:10067000000EF420E26E070EDBCFE3FFE806FCE29B
:1006800011C00FF012C010F059EC05F0462A12000C
:10069000000E936E939A9398000EE4EC03F04E0EC6
:1006A000116EEB0EE82EFED7112EFCD700F0A60E31
:1006B000E82EFED700D0030E2CEC05F00D0E116EC7
:1006C000FC0EE82EFED7112EFCD7030E2CEC05F005
:1006D000640EE82EFED7030E2CEC05F0020E2CEC77
:1006E00005F0020E2CEC05F0080E2CEC05F0000EC7
:1006F0002CEC05F00C0E2CEC05F0000E2CEC05F0AB
:10070000060E2CEC05F01200126E1204D8A48BEF2A
:1007100003F08DEF03F09CEF03F011507F0F156E87
:1007200015380F0B146E15500F0B136E14502CEC64
:1007300005F013502CEC05F0020E1218D8A4A3EF0C
:1007400003F0A5EF03F0B4EF03F01150BF0F156EE7
:1007500015380F0B146E15500F0B136E14502CEC34
:1007600005F013502CEC05F01200530E105C020E35
:100770001158D8A0BEEF03F0C0EF03F0C5EF03F0AF
:10078000020E99EC05F0E3EF03F0115009E1EF0ED2
:10079000105CD8A0CEEF03F0D0EF03F0E0EF03F051
:1007A000530E105C020E1158D8B0D9EF03F0DBEFF6
:1007B00003F0E0EF03F0010E99EC05F0E3EF03F036
:1007C000010E99EC05F012000F6E0FA0EAEF03F096
:1007D000ECEF03F0EFEF03F08180F0EF03F0819096
:1007E0000FA2F5EF03F0F7EF03F0FAEF03F08182C9
:1007F000FBEF03F081920FA400EF04F002EF04F08E
:1008000005EF04F0818406EF04F081940FA60BEF4E
:1008100004F00DEF04F010EF04F0818611EF04F006
:1008200081961200000E186E000E176E28EF04F06D
:1008300017501324156E18501420166E15C0F6FFAD
:1008400016C0F7FF0800F55063EC04F0174A182AA9
:1008500017501324156E18501420166E15C0F6FF8D
:1008600016C0F7FF0800F5500009D8A43AEF04F0CD
:100870003CEF04F018EF04F01200000E0F6E0F5062
:10088000080D620EF324D96E000EF420DA6E000E0D
:10089000DE6E000EDD6E0F50080D650EF324D96E6E
:1008A000000EF420DA6E000EDE6E000EDD6E000E1D
:1008B000466E0F2A040E0F6460EF04F062EF04F03E
:1008C0003FEF04F01200126E12500F0B106E125018
:1008D000F00B116E818A11380F0BE4EC03F0818864
:1008E000A60EE82EFED700D08198A60EE82EFED7E1
:1008F00000D01050E4EC03F08188A60EE82EFED75D
:1009000000D08198A60EE82EFED700D01200DC0E93
:10091000F66E0A0EF76E000EF86E00EE2DF010EE79
:1009200010F00900F5CFEEFFE550E150FAE100EEDE
:1009300060F0280EEE6AE806FDE100EE3DF00A0EDA
:10094000EE6AE806FDE148904892000EF86E00015C
:10095000AAEF04F0D388D38AD38C9486A7EC05F051
:10096000D08EF28AF288F18438EC05F0F18CF4EC48
:1009700004F0F28EF28C000E99EC05F0530E43EC6D
:1009800005F0AEEC01F0C1EF04F05EEF00F09492E0
:100990009494959295908B828B848C828C800B0E94
:1009A000106E260E0F6E5E0EE82EFED70F2EFCD7B1
:1009B000102EFAD78B928B948C928C901200A4EC10
:1009C00005F064EC05F00009D8A4E9EF04F0EBEFC2
:1009D00004F0E1EF04F0C4CF42F0C3CF41F041C0D6
:1009E0000FF042C010F01200949C948EAB8E000E5B
:1009F000B06E330EAF6EAC9CAC8AAC98AC84AB9C42
:100A0000AB881200ADEC05F03F0EC116999099929B
:100A1000C29AF80EC016C08E870EC016B88012009B
:100A2000AFEC05F0020AD8B418EF05F01AEF05F0A4
:100A30001DEF05F0030E9DEC05F01200AFEC05F084
:100A4000020AD8A426EF05F028EF05F02BEF05F0F9
:100A5000010E9DEC05F01200106E819A1050E4EC2E
:100A600003F08188A60EE82EFED700D081981200F0
:100A7000D580D592D584D596D59AD59C7C0ED66E48
:100A8000E10ED76E12000F6E9EA849EF05F04BEFF6
:100A900005F044EF05F00FC0ADFF1200DFEC04F0ED
:100AA0000FC013F010C014F013C011F014C012F0F6
:100AB000120020EE05F00F50D9261050DA22000E59
:100AC000DE6E000EDD6E1200C2B269EF05F06CEF53
:100AD00005F0010E6DEF05F0000E120002003C0A59
:100AE000000000000400200A00000000000E2CECB2
:100AF00005F0010E2CEC05F012008C808B928B948B
:100B00008C9212008B848B928C908C9212008C822F
:100B10008B928B948C90120095948C94010E456E60
:100B200012008C84000E456E12008C94010E456EEE
:100B300012000F6E0FC047F01200016E01C047F0A7
:100B4000120002EC05F01200C280C2821200D59E93
:100B5000120047501200D58E1200C290120047506A
:020B6000120081
:020000040020DA
:08000000FFFFFFFFFFFFFFFF00
:020000040030CA
:0E000000FFC80D3E3C9D81FF0FC00FE00F407A
:00000001FF
