:040000003BEF00F0E2
:100008004382D9CF35F0DACF36F0F3CF37F0F4CFDB
:1000180038F0F29EF28C7C0ED66015EF00F017EFE8
:1000280000F019EF00F07C0ED66EE10ED7601FEFDE
:1000380000F021EF00F023EF00F0E10ED76EF2A4FC
:1000480028EF00F02AEF00F02FEF00F0294A2A2AC3
:100058003DEC00F0F294F28EF28C38C0F4FF37C019
:10006800F3FF36C0DAFF35C0D9FF4392110021EF04
:1000780001F03F4A402AE80E3F1807E1FD0E4018FC
:10008800D8A449EF00F04BEF00F04FEF00F0000E5E
:10009800406E020E3F6E4150D8A455EF00F057EF66
:1000A80000F059EF00F07FEF00F0000E346E76EFAD
:1000B80000F03FC02DF040C02EF03450040D010E6A
:1000C800F324D96E000EF420DA6EDECF32F0DDCFE5
:1000D80033F0020E32242F6E000E3320306EBFEC48
:1000E80000F0342A4150345CD8A07DEF00F07FEF57
:1000F80000F05DEF00F01200A0EF00F07FEC01F0DF
:1001080071EC01F0010E78EC01F0BEEF00F082EC2A
:1001180001F0E806D8B493EF00F095EF00F08BEF0C
:1001280000F0BEEF00F0F1EC00F0BEEF00F0000EC2
:1001380078EC01F0BEEF00F082EC01F03D6E3E6A13
:100148003E50000AD8B4ABEF00F09BEF00F03D50F2
:10015800000AD8B482EF00F0010AD8B48BEF00F09F
:10016800030AD8B4BEEF00F0010AD8B497EF00F044
:100178009BEF00F012002F503010D8B4C6EF00F0FB
:10018800C8EF00F0ECEF00F0010E316ED0EF00F098
:10019800D8902F363036312A30AED5EF00F0D7EF71
:1001A80000F0CCEF00F02F502D5C30502E58D8A026
:1001B800E0EF00F0E2EF00F0E6EF00F02F502D5EE8
:1001C80030502E5AD89030322F32312ED7EF00F0DF
:1001D8002DC02DF02EC02EF012003DEC01F039C0DC
:1001E8003BF03AC03CF0530E3B5C020E3C58D8A0A2
:1001F80000EF01F002EF01F007EF01F0020E78ECDA
:1002080001F020EF01F03C5009E1EF0E3B5CD8A073
:1002180010EF01F012EF01F020EF01F0530E3B5CFC
:10022800020E3C58D8B01BEF01F01DEF01F020EF93
:1002380001F0010E78EC01F012000C0EF66E030EC0
:10024800F76E000EF86E0900F5CF3FF00900F5CF04
:1002580040F00900F5CF41F000EE01F02C0EEE6AF7
:10026800E806FDE143904392000EF86E00016AEF44
:1002780001F07CEC01F060EC01F00009D8A447EF34
:1002880001F049EF01F03FEF01F0C4CF2CF0C3CFEC
:100298002BF02BC039F02CC03AF0120084EC01F09E
:1002A8003F0EC11699909992C29AF80EC016C08E48
:1002B800870EC016B8801200C2B265EF01F068EF71
:1002C80001F0010E69EF01F0000E1200000E78EC4B
:1002D80001F080EC00F03BEF00F0D580D582D584AA
:1002E800D596D59AD59C1200396E39C042F01200C5
:1002F800C280C282120052EC01F012004250120079
:07030800C290120002000187
:020000040020DA
:08000000FFFFFFFFFFFFFFFF00
:020000040030CA
:0E000000FFC80F3E3C9D85FF0FC00FE00F4074
:00000001FF
