:040000004BEF00F0D2
:100008003D82FACF07F0FBCF08F0E1CF09F0E2CF4D
:100018000AF0D9CF0BF0DACF0CF0F3CF0DF0F4CF14
:100028000EF0F29EF28C7C0ED6601DEF00F01FEFF2
:1000380000F021EF00F07C0ED66EE10ED76027EFBE
:1000480000F029EF00F02BEF00F0E10ED76EF2A4DC
:1000580030EF00F032EF00F037EF00F0374A382A7F
:10006800D4EC00F0F294F28EF28C0EC0F4FF0DC0C6
:10007800F3FF0CC0DAFF0BC0D9FF0AC0E2FF09C0CA
:10008800E1FF08C0FBFF07C0FAFF3D9211009BEF9C
:1000980001F0B5EF00F075EC01F020EE2FF010EE56
:1000A80017F0070EDBCFE3FFE806FCE220EE27F0AF
:1000B80010EE1FF0070EDBCFE3FFE806FCE2170E99
:1000C800116E000E126E38EC01F01F0E116E000E4C
:1000D800126E38EC01F0BDEC01F03BEC02F0010EC1
:1000E8002FEC02F0D3EF00F025EC02F039EC02F02F
:1000F800E806D8B482EF00F084EF00F078EF00F063
:10010800D3EF00F020EC02F039EC02F0020AD8B488
:1001180090EF00F092EF00F086EF00F0D3EF00F0E0
:100128002AEC02F0040E166E0C0E156E340EE82E34
:10013800FED7152EFCD7162EFAD7020E2FEC02F09A
:1001480039EC02F0030AD8B4ACEF00F0AEEF00F0DF
:1001580094EF00F0D3EF00F0000E2FEC02F0D3EF95
:1001680000F039EC02F0156E166A1650000AD8B481
:10017800C0EF00F0B0EF00F01550000AD8B44FEF10
:1001880000F0010AD8B47AEF00F0030AD8B488EF77
:1001980000F0010AD8B4A4EF00F0B0EF00F01200AC
:1001A800000E066E0650080D650EF324D96E000E7B
:1001B800F420DA6EDE2A000EDD220650080D600EED
:1001C800F324D96E000EF420DA6E0650080D650E81
:1001D800F324E16E000EF420E26EDE50E65CDE50A1
:1001E800E658D8A0FAEF00F0FCEF00F02EEF01F08F
:1001F8000650080D620EF324D96E000EF420DA6E54
:10020800DE50DE10D8B40BEF01F00DEF01F02EEF49
:1002180001F00650080D650EF324D96E000EF42087
:10022800DA6E000EDE6E000EDD6E0650080D620EF0
:10023800F324D96E000EF420DA6E02D82EEF01F006
:100248000500FA6EDE50FD6EDE50FE6EF850FF6E51
:10025800FA501200062A040E066435EF01F037EF53
:1002680001F0D6EF00F01200050E3B603EEF01F002
:1002780040EF01F074EF01F020EE02F01150D926A2
:100288001250DA22DE50DE10D8B44DEF01F04FEFF5
:1002980001F074EF01F011C0D9FF12C0DAFFDE508F
:1002A800DE10D8B45AEF01F05CEF01F074EF01F002
:1002B80011C0D9FF12C0DAFF3B50080D600EF324BD
:1002C800E16E000EF420E26E070EDBCFE3FFE806D6
:1002D800FCE211C00FF012C010F006EC02F03B2A4D
:1002E8001200000E0F6E0F50080D620EF324D96E27
:1002F800000EF420DA6E000EDE6E000EDD6E0F507A
:10030800080D650EF324D96E000EF420DA6E000E87
:10031800DE6E000EDD6E000E3B6E0F2A040E0F64BB
:1003280098EF01F09AEF01F077EF01F01200220E3A
:10033800F66E040EF76E000EF86E00EE27F010EE63
:1003480010F00900F5CFEEFFE550E150FAE100EEBC
:1003580060F0280EEE6AE806FDE13B6A3A6A396AFF
:10036800386A376A3D903D92000EF86E0001D5EF6D
:1003780001F094929494959295908B828B848C82C0
:100388008C800B0E106E260E0F6E5E0EE82EFED7BA
:100398000F2EFCD7102EFAD78B928B948C928C90C0
:1003A8001200D388D38AD38C37EC02F0D08EF28A2D
:1003B800F18419EC02F0F28EF28C000E2FEC02F0B0
:1003C8004DEC00F0E4EF01F04BEF00F03DEC02F0F3
:1003D800020AD8B4F2EF01F0F4EF01F0F7EF01F000
:1003E800030E33EC02F012003DEC02F0020AD8A42E
:1003F80000EF02F002EF02F005EF02F0010E33EC1D
:1004080002F0120020EE05F00F50D9261050DA2223
:10041800000EDE6E000EDD6E12000200F00300001A
:1004280000000100D40300000000D580D582D584E7
:10043800D596D59AD59C12008C808B928B948C92F1
:1004480012008B848B928C908C9212008C828B92EF
:100458008B948C9012000F6E0FC03CF01200016E4E
:1004680001C03CF01200D59E12003C501200D58EFF
:0604780012003C501200CE
:020000040020DA
:08000000FFFFFFFFFFFFFFFF00
:020000040030CA
:0E000000FFC80F3E3C9D85FF0FC00FE00F4074
:00000001FF
