:040000001FEF00F0FE
:100008000C82F29EF28C060ED6600DEF00F00FEF18
:1000180000F011EF00F0060ED66EF2A416EF00F015
:1000280018EF00F01BEF00F0094A0A2AF294F28E4A
:10003800F28C0C921100B1EF00F03FEF00F0D4EC1D
:1000480000F0010ECDEC00F05DEF00F0D7EC00F011
:10005800E806D8B432EF00F034EF00F02AEF00F0F1
:100068005DEF00F05EEC00F05DEF00F0000ECDEC0F
:1000780000F05DEF00F0D7EC00F0056E066A065060
:10008800000AD8B44AEF00F03AEF00F00550000A31
:10009800D8B423EF00F0010AD8B42AEF00F0030A1D
:1000A800D8B45DEF00F0010AD8B436EF00F03AEFAB
:1000B80000F012008EEC00F001C003F002C004F062
:1000C800530E035C020E0458D8A06DEF00F06FEFDA
:1000D80000F074EF00F0020ECDEC00F08DEF00F0B0
:1000E800045009E1EF0E035CD8A07DEF00F07FEF2C
:1000F80000F08DEF00F0530E035C020E0458D8B0E8
:1001080088EF00F08AEF00F08DEF00F0010ECDECE3
:1001180000F01200D1EC00F0BCEC00F00009D8A40B
:1001280098EF00F09AEF00F090EF00F0C4CF08F0DD
:10013800C3CF07F007C001F008C002F01200D9ECE5
:1001480000F03F0EC11699909992C29AF80EC01607
:10015800C08E870EC016B88012000A6A096A086A3B
:10016800076A0C900C92000EF86E0001C6EF00F0C2
:10017800C2B2C1EF00F0C4EF00F0010EC5EF00F00D
:10018800000E1200000ECDEC00F021EC00F01FEF85
:1001980000F0016E01C00BF01200C280C282120092
:0E01A800A3EC00F012000B501200C2901200E7
:020000040020DA
:08000000FFFFFFFFFFFFFFFF00
:020000040030CA
:0E000000FFC80F3E3C9D85FF0FC00FE00F4074
:00000001FF
