:040000005EEF00F0BF
:100008004882FACF07F0FBCF08F0E1CF09F0E2CF42
:100018000AF0D9CF0BF0DACF0CF0F3CF0DF0F4CF14
:100028000EF0F29EF28C7C0ED6601DEF00F01FEFF2
:1000380000F021EF00F07C0ED66EE10ED76027EFBE
:1000480000F029EF00F02BEF00F0E10ED76EF2A4DC
:1000580030EF00F032EF00F035EF00F0A6EC02F0E0
:10006800F294F2A23AEF00F03CEF00F04AEF00F011
:10007800ABEC05F0020AD8B444EF00F046EF00F00C
:1000880049EF00F0020E99EC05F0F292F28EF28C34
:100098000EC0F4FF0DC0F3FF0CC0DAFF0BC0D9FF90
:1000A8000AC0E2FF09C0E1FF08C0FBFF07C0FAFF72
:0800B8004892110086EF04F0EC
:1003000000203E5741544552494E4720504C414EE3
:1003100054533C0000203E434845434B494E472040
:100320004D4F4953543C000020506C616E7420576F
:1003300061746572696E67000053797374656D202E
:10034000496E69742E2E2E0000203E49444C4520F3
:0903500053544154453C000000E7
:10035A0087EF02F09DEC05F03CEC04F088EC05F028
:10036A00C3EC04F047EC03F020EE35F010EE1BF07E
:10037A00070EDBCFE3FFE806FCE220EE2DF010EEDD
:10038A0023F0070EDBCFE3FFE806FCE21B0E116E3B
:10039A00000E126E0AEC03F0230E116E000E126E9E
:1003AA000AEC03F072EC05F0010E116E010E83ECFB
:1003BA0003F0280E136E030E146E11EC04F0010EF6
:1003CA00116E020E83EC03F0390E136E030E146ED7
:1003DA0011EC04F00B0E1A6E260E196E5E0EE82E44
:1003EA00FED7192EFCD71A2EFAD7A7EC05F0010E64
:1003FA0095EC05F0A5EF02F0530E3FEC05F072EC18
:10040A0005F0010E116E010E83EC03F0490E136E16
:10041A00030E146E11EC04F091EC05F07EEC05F07D
:10042A00A5EC05F0E806D8B41DEF02F01FEF02F0C4
:10043A0015EF02F0A5EF02F0570E3FEC05F08DEC38
:10044A0005F072EC05F0010E116E010E83EC03F05B
:10045A00010E136E030E146E11EC04F037EF02F066
:10046A0079EC05F0A5EC05F0020AD8B43FEF02F0EA
:10047A0041EF02F035EF02F0A5EF02F04D0E3FEC2E
:10048A0005F072EC05F0010E116E010E83EC03F01B
:10049A00150E136E030E146E11EC04F091EC05F0B8
:1004AA0083EC05F00B0E1A6E260E196E5E0EE82E00
:1004BA00FED7192EFCD71A2EFAD74AEC05F011C02E
:1004CA002BF012C02CF0E90E2B5CFD0E2C58D8A094
:1004DA0071EF02F073EF02F077EF02F0030E2C6E69
:1004EA00E80E2B6E2B503FEC05F02BC010F02CC001
:1004FA0011F0B4EC03F0A5EF02F0000E95EC05F054
:10050A00A5EF02F0A5EC05F0196E1A6A1A50000A56
:10051A00D8B492EF02F082EF02F01950000AD8B470
:10052A00AFEF01F0010AD8B401EF02F0030AD8B420
:10053A0021EF02F0010AD8B443EF02F082EF02F091
:10054A001200000E066E0650080D650EF324D96ED1
:10055A00000EF420DA6EDE2A000EDD220650080DA7
:10056A00600EF324D96E000EF420DA6E0650080DE0
:10057A00650EF324E16E000EF420E26EDE50E65CB6
:10058A00DE50E658D8A0CCEF02F0CEEF02F000EF32
:10059A0003F00650080D620EF324D96E000EF42003
:1005AA00DA6EDE50DE10D8B4DDEF02F0DFEF02F0D3
:1005BA0000EF03F00650080D650EF324D96E000E05
:1005CA00F420DA6E000EDE6E000EDD6E0650080DA7
:1005DA00620EF324D96E000EF420DA6E02D800EF10
:1005EA0003F00500FA6EDE50FD6EDE50FE6EF85026
:1005FA00FF6EFA501200062A040E066407EF03F093
:10060A0009EF03F0A8EF02F01200050E466010EFA2
:10061A0003F012EF03F046EF03F020EE02F0115060
:10062A00D9261250DA22DE50DE10D8B41FEF03F0BA
:10063A0021EF03F046EF03F011C0D9FF12C0DAFF31
:10064A00DE50DE10D8B42CEF03F02EEF03F046EFA5
:10065A0003F011C0D9FF12C0DAFF4650080D600E30
:10066A00F324E16E000EF420E26E070EDBCFE3FF07
:10067A00E806FCE211C00FF012C010F055EC05F0CC
:10068A00462A1200000E936E939A9398000EE3EC9A
:10069A0003F04E0E116EEB0EE82EFED7112EFCD78C
:1006AA0000F0A60EE82EFED700D0030E28EC05F0C7
:1006BA000D0E116EFC0EE82EFED7112EFCD7030E7E
:1006CA0028EC05F0640EE82EFED7030E28EC05F0A0
:1006DA00020E28EC05F0020E28EC05F0080E28ECB4
:1006EA0005F0000E28EC05F00C0E28EC05F0000EC3
:1006FA0028EC05F0060E28EC05F01200126E120422
:10070A00D8A48AEF03F08CEF03F09BEF03F01150AB
:10071A007F0F156E15380F0B146E15500F0B136ED5
:10072A00145028EC05F0135028EC05F0020E1218AC
:10073A00D8A4A2EF03F0A4EF03F0B3EF03F0115033
:10074A00BF0F156E15380F0B146E15500F0B136E65
:10075A00145028EC05F0135028EC05F01200530E43
:10076A00105C020E1158D8A0BDEF03F0BFEF03F0E2
:10077A00C4EF03F0020E95EC05F0E2EF03F011501E
:10078A0009E1EF0E105CD8A0CDEF03F0CFEF03F034
:10079A00DFEF03F0530E105C020E1158D8B0D8EFF9
:1007AA0003F0DAEF03F0DFEF03F0010E95EC05F04A
:1007BA00E2EF03F0010E95EC05F012000F6E0FA0A8
:1007CA00E9EF03F0EBEF03F0EEEF03F08180EFEFD8
:1007DA0003F081900FA2F4EF03F0F6EF03F0F9EFC4
:1007EA0003F08182FAEF03F081920FA4FFEF03F086
:1007FA0001EF04F004EF04F0818405EF04F0819422
:10080A000FA60AEF04F00CEF04F00FEF04F0818654
:10081A0010EF04F081961200000E186E000E176E8B
:10082A0027EF04F017501324156E18501420166E73
:10083A0015C0F6FF16C0F7FF0800F55062EC04F089
:10084A00174A182A17501324156E18501420166EBA
:10085A0015C0F6FF16C0F7FF0800F5500009D8A426
:10086A0039EF04F03BEF04F017EF04F01200000E2A
:10087A000F6E0F50080D620EF324D96E000EF4208D
:10088A00DA6E000EDE6E000EDD6E0F50080D650E7C
:10089A00F324D96E000EF420DA6E000EDE6E000E1E
:1008AA00DD6E000E466E0F2A040E0F645FEF04F031
:1008BA0061EF04F03EEF04F01200126E12500F0BBB
:1008CA00106E1250F00B116E818A11380F0BE3EC87
:1008DA0003F08188A60EE82EFED700D08198A60ED6
:1008EA00E82EFED700D01050E3EC03F08188A60E64
:1008FA00E82EFED700D08198A60EE82EFED700D0AB
:10090A001200D40EF66E0A0EF76E000EF86E00EEA6
:10091A002DF010EE10F00900F5CFEEFFE550E15092
:10092A00FAE100EE60F0280EEE6AE806FDE100EE5C
:10093A003DF00A0EEE6AE806FDE148904892000E84
:10094A00F86E0001A9EF04F0D388D38AD38C948679
:10095A00A3EC05F0D08EF28AF288F18434EC05F02B
:10096A00F18CF0EC04F0F28EF28C000E95EC05F0AE
:10097A00ADEC01F0BDEF04F05EEF00F094929494B8
:10098A00959295908B828B848C828C800B0E106E44
:10099A00260E0F6E5E0EE82EFED70F2EFCD7102EF7
:1009AA00FAD78B928B948C928C901200A0EC05F063
:1009BA0060EC05F00009D8A4E5EF04F0E7EF04F0D5
:1009CA00DDEF04F0C4CF42F0C3CF41F041C00FF0D5
:1009DA0042C010F01200949C948EAB8E000EB06E42
:1009EA00330EAF6EAC9CAC8AAC98AC84AB9CAB8833
:1009FA001200A9EC05F03F0EC11699909992C29A7D
:100A0A00F80EC016C08E870EC016B8801200ABEC66
:100A1A0005F0020AD8B414EF05F016EF05F019EF45
:100A2A0005F0030E99EC05F01200ABEC05F0020A92
:100A3A00D8A422EF05F024EF05F027EF05F0010E08
:100A4A0099EC05F01200106E819A1050E3EC03F055
:100A5A008188A60EE82EFED700D081981200D58094
:100A6A00D592D584D596D59AD59C7C0ED66EE10EB4
:100A7A00D76E12000F6E9EA845EF05F047EF05F0FE
:100A8A0040EF05F00FC0ADFF1200DBEC04F00FC021
:100A9A0013F010C014F013C011F014C012F01200B9
:100AAA0020EE05F00F50D9261050DA22000EDE6E25
:100ABA00000EDD6E1200C2B265EF05F068EF05F0B8
:100ACA00010E69EF05F0000E12000200340A000060
:100ADA0000000400180A00000000000E28EC05F0CF
:100AEA00010E28EC05F012008C808B928B948C926C
:100AFA0012008B848B928C908C9212008C828B9237
:100B0A008B948C90120095948C94010E456E120071
:100B1A008C84000E456E12008C94010E456E1200F4
:100B2A000F6E0FC047F01200016E01C047F01200AD
:100B3A00FEEC04F01200C280C2821200D59E12009E
:100B4A0047501200D58E1200C29012004750120070
:020000040020DA
:08000000FFFFFFFFFFFFFFFF00
:020000040030CA
:0E000000FFC80D3E3C9D81FF0FC00FE00F407A
:00000001FF
