:040000001FEF00F0FE
:100008000D82F29EF28C060ED6600DEF00F00FEF17
:1000180000F011EF00F0060ED66EF2A416EF00F015
:1000280018EF00F01BEF00F00A4A0B2AF294F28E48
:10003800F28C0D921100B4EF00F03FEF00F0D7EC16
:1000480000F0010ED0EC00F05DEF00F0DAEC00F00B
:10005800E806D8B432EF00F034EF00F02AEF00F0F1
:100068005DEF00F05EEC00F05DEF00F0000ED0EC0C
:1000780000F05DEF00F0DAEC00F0066E076A07505A
:10008800000AD8B44AEF00F03AEF00F00650000A30
:10009800D8B423EF00F0010AD8B42AEF00F0030A1D
:1000A800D8B45DEF00F0010AD8B436EF00F03AEFAB
:1000B80000F0120091EC00F001C004F002C005F05D
:1000C800530E045C020E0558D8A06DEF00F06FEFD8
:1000D80000F074EF00F0020ED0EC00F090EF00F0AA
:1000E800055009E1EF0E045CD8A07DEF00F07FEF2A
:1000F80000F090EF00F0530E045C020E0558D8B0E3
:1001080088EF00F08AEF00F090EF00F0DAEC00F0F2
:10011800036E0350D0EC00F01200D4EC00F0BFECFA
:1001280000F00009D8A49BEF00F09DEF00F093EFDA
:1001380000F0C4CF09F0C3CF08F008C001F009C02F
:1001480002F01200DCEC00F03F0EC1169990999273
:10015800C29AF80EC016C08E870EC016B88012005C
:100168000B6A0A6A096A086A0D900D92000EF86E09
:100178000001C9EF00F0C2B2C4EF00F0C7EF00F011
:10018800010EC8EF00F0000E1200000ED0EC00F0D7
:1001980021EC00F01FEF00F0016E01C00CF012001E
:1001A800C280C2821200A6EC00F012000C501200AD
:0401B800C2901200DF
:020000040020DA
:08000000FFFFFFFFFFFFFFFF00
:020000040030CA
:0E000000FFC80F3E3C9D85FF0FC00FE00F4074
:00000001FF
