:0400000049EF00F0D4
:100008004682FACF07F0FBCF08F0E1CF09F0E2CF44
:100018000AF0D9CF0BF0DACF0CF0F3CF0DF0F4CF14
:100028000EF0F29EF28C7C0ED6601DEF00F01FEFF2
:1000380000F021EF00F07C0ED66EE10ED76027EFBE
:1000480000F029EF00F02BEF00F0E10ED76EF2A4DC
:1000580030EF00F032EF00F035EF00F09EEC02F0E8
:10006800F294F28EF28C0EC0F4FF0DC0F3FF0CC0B8
:10007800DAFF0BC0D9FF0AC0E2FF09C0E1FF08C0E0
:0E008800FBFF07C0FAFF469211007EEF04F066
:1003000000203E5741544552494E4720504C414EE3
:1003100054533C000053797374656D20496E6974C1
:1003200069616C2E2E2E0000203E434845434B4908
:100330004E47204D4F4953543C000020506C616E95
:1003400074205761746572696E670000203E4944ED
:100350004C452053544154453C0000007FEF02F0CF
:1003600077EC05F034EC04F062EC05F020EE35F0AB
:1003700010EE1BF0070EDBCFE3FFE806FCE220EEF9
:100380002DF010EE23F0070EDBCFE3FFE806FCE2D2
:100390001B0E116E000E126E02EC03F0230E116E96
:1003A000000E126E02EC03F0A1EC04F03FEC03F03F
:1003B0004CEC05F0010E116E010E7BEC03F03B0ED0
:1003C000136E030E146E09EC04F0010E116E020E92
:1003D0007BEC03F0150E136E030E146E09EC04F0A3
:1003E000030E1A6E080E196E770EE82EFED7192E20
:1003F000FCD71A2EFAD700F081EC05F0010E6FEC55
:1004000005F09DEF02F04CEC05F0010E116E010EAF
:100410007BEC03F04C0E136E030E146E09EC04F02B
:100420006BEC05F016EF02F058EC05F07FEC05F0F0
:10043000E806D8B41EEF02F020EF02F014EF02F04D
:100440009DEF02F067EC05F04CEC05F0010E116E2B
:10045000010E7BEC03F0010E136E030E146E09EC1B
:1004600004F035EF02F053EC05F07FEC05F0020AE2
:10047000D8B43DEF02F03FEF02F033EF02F09DEF12
:1004800002F04CEC05F0010E116E010E7BEC03F056
:10049000280E136E030E146E09EC04F06BEC05F0DD
:1004A0005DEC05F00B0E1A6E260E196E5E0EE82E30
:1004B000FED7192EFCD71A2EFAD724EC05F011C05E
:1004C0002BF012C02CF0E90E2B5CFD0E2C58D8A09E
:1004D0006CEF02F06EEF02F072EF02F0030E2C6E82
:1004E000E80E2B6E2BC010F02CC011F0ACEC03F01A
:1004F0009DEF02F0000E6FEC05F09DEF02F07FEC37
:1005000005F0196E1A6A1A50000AD8B48AEF02F080
:100510007AEF02F01950000AD8B4B0EF01F0010AE6
:10052000D8B403EF02F0030AD8B422EF02F0010AB4
:10053000D8B441EF02F07AEF02F01200000E066E1E
:100540000650080D650EF324D96E000EF420DA6E05
:10055000DE2A000EDD220650080D600EF324D96E4F
:10056000000EF420DA6E0650080D650EF324E16EDD
:10057000000EF420E26EDE50E65CDE50E658D8A0B5
:10058000C4EF02F0C6EF02F0F8EF02F00650080DDB
:10059000620EF324D96E000EF420DA6EDE50DE1007
:1005A000D8B4D5EF02F0D7EF02F0F8EF02F0065022
:1005B000080D650EF324D96E000EF420DA6E000EDD
:1005C000DE6E000EDD6E0650080D620EF324D96E4D
:1005D000000EF420DA6E02D8F8EF02F00500FA6E91
:1005E000DE50FD6EDE50FE6EF850FF6EFA501200C7
:1005F000062A040E0664FFEF02F001EF03F0A0EFFD
:1006000002F01200050E446008EF03F00AEF03F059
:100610003EEF03F020EE02F01150D9261250DA22FC
:10062000DE50DE10D8B417EF03F019EF03F03EEF01
:1006300003F011C0D9FF12C0DAFFDE50DE10D8B4CB
:1006400024EF03F026EF03F03EEF03F011C0D9FFD3
:1006500012C0DAFF4450080D600EF324E16E000E64
:10066000F420E26E070EDBCFE3FFE806FCE211C0E8
:100670000FF012C010F02FEC05F0442A1200000E0B
:10068000936E939A9398000EDBEC03F04E0E116E6E
:10069000EB0EE82EFED7112EFCD700F0A60EE82EAA
:1006A000FED700D0030E0DEC05F00D0E116EFC0E02
:1006B000E82EFED7112EFCD7030E0DEC05F0640ECC
:1006C000E82EFED7030E0DEC05F0020E0DEC05F042
:1006D000020E0DEC05F0080E0DEC05F0000E0DEC11
:1006E00005F00C0E0DEC05F0000E0DEC05F0060EFD
:1006F0000DEC05F01200126E1204D8A482EF03F084
:1007000084EF03F093EF03F011507F0F156E15384F
:100710000F0B146E15500F0B136E14500DEC05F0EB
:1007200013500DEC05F0020E1218D8A49AEF03F046
:100730009CEF03F0ABEF03F01150BF0F156E1538AF
:100740000F0B146E15500F0B136E14500DEC05F0BB
:1007500013500DEC05F01200530E105C020E1158F0
:10076000D8A0B5EF03F0B7EF03F0BCEF03F0020E33
:100770006FEC05F0DAEF03F0115009E1EF0E105CB9
:10078000D8A0C5EF03F0C7EF03F0D7EF03F0530E87
:10079000105C020E1158D8B0D0EF03F0D2EF03F086
:1007A000D7EF03F0010E6FEC05F0DAEF03F0010E66
:1007B0006FEC05F012000F6E0FA0E1EF03F0E3EF16
:1007C00003F0E6EF03F08180E7EF03F081900FA2E2
:1007D000ECEF03F0EEEF03F0F1EF03F08182F2EFC4
:1007E00003F081920FA4F7EF03F0F9EF03F0FCEFB1
:1007F00003F08184FDEF03F081940FA602EF04F073
:1008000004EF04F007EF04F0818608EF04F081960E
:100810001200000E186E000E176E1FEF04F0175036
:100820001324156E18501420166E15C0F6FF16C04E
:10083000F7FF0800F5505AEC04F0174A182A175031
:100840001324156E18501420166E15C0F6FF16C02E
:10085000F7FF0800F5500009D8A431EF04F033EF9A
:1008600004F00FEF04F01200000E0F6E0F50080D91
:10087000620EF324D96E000EF420DA6E000EDE6EE6
:10088000000EDD6E0F50080D650EF324D96E000EBC
:10089000F420DA6E000EDE6E000EDD6E000E446E89
:1008A0000F2A040E0F6457EF04F059EF04F036EFEF
:1008B00004F01200126E12500F0B106E1250F00B5B
:1008C000116E818A11380F0BDBEC03F08188A60EC4
:1008D000E82EFED700D08198A60EE82EFED700D0D5
:1008E0001050DBEC03F08188A60EE82EFED700D076
:1008F0008198A60EE82EFED700D01200880EF66E64
:100900000A0EF76E000EF86E00EE2DF010EE10F0ED
:100910000900F5CFEEFFE550E150FAE100EE60F09E
:10092000280EEE6AE806FDE100EE3DF0080EEE6AE4
:10093000E806FDE146904692000EF86E0001B9EF20
:1009400004F094929494959295908B828B848C82EF
:100950008C800B0E106E260E0F6E5E0EE82EFED7EC
:100960000F2EFCD7102EFAD78B928B948C928C90F2
:100970001200D388D38AD38C7DEC05F0D08EF28A16
:10098000F18419EC05F0F28EF28C000E6FEC05F09C
:10099000AEEC01F0C8EF04F049EF00F07AEC05F09E
:1009A0003AEC05F00009D8A4D8EF04F0DAEF04F02F
:1009B000D0EF04F0C4CF42F0C3CF41F041C00FF0FC
:1009C00042C010F0120083EC05F03F0EC116999062
:1009D0009992C29AF80EC016C08E870EC016B880C3
:1009E000120085EC05F0020AD8B4F9EF04F0FBEF31
:1009F00004F0FEEF04F0030E73EC05F0120085EC3A
:100A000005F0020AD8A407EF05F009EF05F00CEF96
:100A100005F0010E73EC05F01200106E819A105073
:100A2000DBEC03F08188A60EE82EFED700D081987B
:100A30001200D580D592D584D596D59AD59C7C0EBA
:100A4000D66EE10ED76E1200CEEC04F00FC013F09C
:100A500010C014F013C011F014C012F0120020EEF8
:100A600005F00F50D9261050DA22000EDE6E000E6F
:100A7000DD6E1200C2B23FEF05F042EF05F0010E4D
:100A800043EF05F0000E12000500FE090000000013
:100A90000A00E20900000000000E0DEC05F0010E56
:100AA0000DEC05F012008C808B928B948C921200CE
:100AB0008B848B928C908C9212008C828B928B9474
:100AC0008C90120095948C94010E436E12008C84CD
:100AD000000E436E12008C84010E436E12000F6EE6
:100AE0000FC045F01200016E01C045F01200E3ECAA
:100AF00004F01200C280C2821200D59E120045503E
:0E0B00001200D58E1200C29012004550120055
:020000040020DA
:08000000FFFFFFFFFFFFFFFF00
:020000040030CA
:0E000000FFC80D3E3C9D81FF0FC00FE00F407A
:00000001FF
