:0400000054EF00F0C9
:100008004882FACF07F0FBCF08F0E1CF09F0E2CF42
:100018000AF0D9CF0BF0DACF0CF0F3CF0DF0F4CF14
:100028000EF0F29EF28C7C0ED6601DEF00F01FEFF2
:1000380000F021EF00F07C0ED66EE10ED76027EFBE
:1000480000F029EF00F02BEF00F0E10ED76EF2A4DC
:1000580030EF00F032EF00F035EF00F0B5EC02F0D1
:10006800F294F2A23AEF00F03CEF00F040EF00F01B
:10007800020EA6EC05F0F292F28EF28C0EC0F4FF9E
:100088000DC0F3FF0CC0DAFF0BC0D9FF0AC0E2FFB6
:1000980009C0E1FF08C0FBFF07C0FAFF4892110042
:0400A80095EF04F0DC
:1003000000203E5741544552494E4720504C414EE3
:1003100054533C000053797374656D20496E6974C1
:1003200069616C2E2E2E0000203E434845434B4908
:100330004E47204D4F4953543C000020506C616E95
:1003400074205761746572696E670000203E4944ED
:100350004C452053544154453C00000096EF02F0B8
:10036000AAEC05F04BEC04F095EC05F020EE35F02E
:1003700010EE1BF0070EDBCFE3FFE806FCE220EEF9
:100380002DF010EE23F0070EDBCFE3FFE806FCE2D2
:100390001B0E116E000E126E19EC03F0230E116E7F
:1003A000000E126E19EC03F0D2EC04F056EC03F0E0
:1003B0007FEC05F0010E116E010E92EC03F03B0E86
:1003C000136E030E146E20EC04F0010E116E020E7B
:1003D00092EC03F0150E136E030E146E20EC04F075
:1003E0000B0E1A6E260E196E5E0EE82EFED7192E13
:1003F000FCD71A2EFAD7B4EC05F0010EA2EC05F0EA
:10040000B4EF02F0EB0E4CEC05F07FEC05F0010EC2
:10041000116E010E92EC03F04C0E136E030E146E6F
:1004200020EC04F09EEC05F018EF02F08BEC05F0E8
:10043000B2EC05F0E806D8B420EF02F022EF02F0AB
:1004400016EF02F0B4EF02F0570E4CEC05F0570E29
:100450004CEC05F0570E4CEC05F0570E4CEC05F04B
:10046000570E4CEC05F0570E4CEC05F09AEC05F0ED
:100470007FEC05F0010E116E010E92EC03F0010EFF
:10048000136E030E146E20EC04F049EF02F086ECBC
:1004900005F0B2EC05F0020AD8B451EF02F053EFC8
:1004A00002F047EF02F0B4EF02F0410E4CEC05F021
:1004B0007FEC05F0010E116E010E92EC03F0280E98
:1004C000136E030E146E20EC04F09EEC05F090EC1D
:1004D00005F00B0E1A6E260E196E5E0EE82EFED774
:1004E000192EFCD71A2EFAD757EC05F011C02BF0B5
:1004F00012C02CF0E90E2B5CFD0E2C58D8A083EF17
:1005000002F085EF02F089EF02F0030E2C6EE80E88
:100510002B6E2BC010F02CC011F0C3EC03F0B4EF25
:1005200002F0000EA2EC05F0B4EF02F0B2EC05F020
:10053000196E1A6A1A50000AD8B4A1EF02F091EFAE
:1005400002F01950000AD8B4B0EF01F0010AD8B493
:1005500002EF02F0030AD8B424EF02F0010AD8B483
:1005600055EF02F091EF02F01200000E066E0650F9
:10057000080D650EF324D96E000EF420DA6EDE2A23
:10058000000EDD220650080D600EF324D96E000E19
:10059000F420DA6E0650080D650EF324E16E000EAD
:1005A000F420E26EDE50E65CDE50E658D8A0DBEFC9
:1005B00002F0DDEF02F00FEF03F00650080D620EBF
:1005C000F324D96E000EF420DA6EDE50DE10D8B4BB
:1005D000ECEF02F0EEEF02F00FEF03F00650080D23
:1005E000650EF324D96E000EF420DA6E000EDE6E76
:1005F000000EDD6E0650080D620EF324D96E000E5B
:10060000F420DA6E02D80FEF03F00500FA6EDE5028
:10061000FD6EDE50FE6EF850FF6EFA501200062A94
:10062000040E066416EF03F018EF03F0B7EF02F0C4
:100630001200050E46601FEF03F021EF03F055EFA7
:1006400003F020EE02F01150D9261250DA22DE50CB
:10065000DE10D8B42EEF03F030EF03F055EF03F0C7
:1006600011C0D9FF12C0DAFFDE50DE10D8B43BEF64
:1006700003F03DEF03F055EF03F011C0D9FF12C0B6
:10068000DAFF4650080D600EF324E16E000EF420F0
:10069000E26E070EDBCFE3FFE806FCE211C00FF0CD
:1006A00012C010F062EC05F0462A1200000E936EA4
:1006B000939A9398000EF2EC03F04E0E116EEB0E2F
:1006C000E82EFED7112EFCD700F0A60EE82EFED79E
:1006D00000D0030E35EC05F00D0E116EFC0EE82E69
:1006E000FED7112EFCD7030E35EC05F0640EE82E74
:1006F000FED7030E35EC05F0020E35EC05F0020EC8
:1007000035EC05F0080E35EC05F0000E35EC05F083
:100710000C0E35EC05F0000E35EC05F0060E35EC50
:1007200005F01200126E1204D8A499EF03F09BEFAB
:1007300003F0AAEF03F011507F0F156E15380F0B61
:10074000146E15500F0B136E145035EC05F013504A
:1007500035EC05F0020E1218D8A4B1EF03F0B3EF98
:1007600003F0C2EF03F01150BF0F156E15380F0BD9
:10077000146E15500F0B136E145035EC05F013501A
:1007800035EC05F01200530E105C020E1158D8A083
:10079000CCEF03F0CEEF03F0D3EF03F0020EA2ECA8
:1007A00005F0F1EF03F0115009E1EF0E105CD8A055
:1007B000DCEF03F0DEEF03F0EEEF03F0530E105C1E
:1007C000020E1158D8B0E7EF03F0E9EF03F0EEEFB7
:1007D00003F0010EA2EC05F0F1EF03F0010EA2EC24
:1007E00005F012000F6E0FA0F8EF03F0FAEF03F020
:1007F000FDEF03F08180FEEF03F081900FA203EF85
:1008000004F005EF04F008EF04F0818209EF04F032
:1008100081920FA40EEF04F010EF04F013EF04F038
:10082000818414EF04F081940FA619EF04F01BEFFC
:1008300004F01EEF04F081861FEF04F08196120091
:10084000000E186E000E176E36EF04F017501324CA
:10085000156E18501420166E15C0F6FF16C0F7FF5F
:100860000800F55071EC04F0174A182A17501324A9
:10087000156E18501420166E15C0F6FF16C0F7FF3F
:100880000800F5500009D8A448EF04F04AEF04F03E
:1008900026EF04F01200000E0F6E0F50080D620ECE
:1008A000F324D96E000EF420DA6E000EDE6E000E18
:1008B000DD6E0F50080D650EF324D96E000EF42086
:1008C000DA6E000EDE6E000EDD6E000E466E0F2A32
:1008D000040E0F646EEF04F070EF04F04DEF04F0BF
:1008E0001200126E12500F0B106E1250F00B116EA0
:1008F000818A11380F0BF2EC03F08188A60EE82EE6
:10090000FED700D08198A60EE82EFED700D010505A
:10091000F2EC03F08188A60EE82EFED700D0819875
:10092000A60EE82EFED700D01200EE0EF66E0A0ECE
:10093000F76E000EF86E00EE2DF010EE10F00900CC
:10094000F5CFEEFFE550E150FAE100EE60F0280E41
:10095000EE6AE806FDE100EE3DF00A0EEE6AE806FA
:10096000FDE148904892000EF86E0001B8EF04F0E7
:10097000D388D38AD38C9486B0EC05F0D08EF28ADB
:10098000F288F18441EC05F0F18C29EC05F0F28E4F
:10099000F28C000EA2EC05F0AEEC01F0CCEF04F00E
:1009A00054EF00F094929494959295908B828B845E
:1009B0008C828C800B0E106E260E0F6E5E0EE82E53
:1009C000FED70F2EFCD7102EFAD78B928B948C92D9
:1009D0008C901200ADEC05F06DEC05F00009D8A488
:1009E000F4EF04F0F6EF04F0ECEF04F0C4CF42F0C3
:1009F000C3CF41F041C00FF042C010F01200B6EC7E
:100A000005F03F0EC11699909992C29AF80EC01641
:100A1000C08E870EC016B8801200B8EC05F0020A2E
:100A2000D8B415EF05F017EF05F01AEF05F0030E37
:100A3000A6EC05F01200B8EC05F0020AD8A423EFEA
:100A400005F025EF05F028EF05F0010EA6EC05F006
:100A50001200949C948EAA86330EAF6E000EB06E78
:100A6000AB8EAC8AAC84AB881200106E819A1050A9
:100A7000F2EC03F08188A60EE82EFED700D0819814
:100A80001200D580D592D584D596D59AD59C7C0E6A
:100A9000D66EE10ED76E12000F6E9EA852EF05F0D3
:100AA00054EF05F04DEF05F00FC0ADFF1200EAEC7A
:100AB00004F00FC013F010C014F013C011F014C0F4
:100AC00012F0120020EE05F00F50D9261050DA2255
:100AD000000EDE6E000EDD6E1200C2B272EF05F087
:100AE00075EF05F0010E76EF05F0000E120005001F
:100AF000360A000000000A001A0A00000000000E7A
:100B000035EC05F0010E35EC05F012008C808B926F
:100B10008B948C9212008B848B928C908C9212000E
:100B20008C828B928B948C90120095948C94010EF5
:100B3000456E12008C84000E456E12008C94010EDE
:100B4000456E12000F6E0FC047F01200016E01C01B
:100B500047F01200FFEC04F01200C280C2821200C3
:100B6000D59E120047501200D58E1200C29012007E
:040B700047501200D8
:020000040020DA
:08000000FFFFFFFFFFFFFFFF00
:020000040030CA
:0E000000FFC80D3E3C9D81FF0FC00FE00F407A
:00000001FF
