:0400000043EF00F0DA
:100008001A82E1CF06F0E2CF07F0D9CF08F0DACFB5
:1000180009F0F3CF0AF0F4CF0BF0F29EF28C7C0ECD
:10002800D66019EF00F01BEF00F01DEF00F07C0E1A
:10003800D66EE10ED76023EF00F025EF00F027EF32
:1000480000F0E10ED76EF2A42CEF00F02EEF00F0D6
:1000580033EF00F0144A152A45EC00F0F294F28EC2
:10006800F28C0BC0F4FF0AC0F3FF09C0DAFF08C026
:10007800D9FF07C0E2FF06C0E1FF1A92110015EF91
:1000880001F0124A132AE80E121807E1FD0E1318A0
:10009800D8A451EF00F053EF00F057EF00F0000E36
:1000A800136E000E126E000E056E0550080D650EDB
:1000B800F324D96E000EF420DA6EDE2A000EDD225B
:1000C8000550080D600EF324D96E000EF420DA6E88
:1000D8000550080D650EF324E16E000EF420E26E63
:1000E800DE50E65CDE50E658D8A07DEF00F07FEFEA
:1000F80000F09CEF00F00550080D620EF324D96E55
:10010800000EF420DA6EDE50DE10D8B48EEF00F068
:1001180090EF00F09CEF00F00550080D650EF324F9
:10012800D96E000EF420DA6E000EDE6E000EDD6E63
:10013800052A0550D8B4A3EF00F0A5EF00F059EF59
:1001480000F01200C6EF00F073EC01F065EC01F06E
:10015800010E6CEC01F0E4EF00F076EC01F0E8063B
:10016800D8B4B9EF00F0BBEF00F0B1EF00F0E4EF66
:1001780000F0E5EC00F0E4EF00F0000E6CEC01F0AC
:10018800E4EF00F076EC01F0106E116A1150000AED
:10019800D8B4D1EF00F0C1EF00F01050000AD8B485
:1001A800A8EF00F0010AD8B4B1EF00F0030AD8B400
:1001B800E4EF00F0010AD8B4BDEF00F0C1EF00F0A1
:1001C800120031EC01F00CC00EF00DC00FF0530E10
:1001D8000E5C020E0F58D8A0F4EF00F0F6EF00F016
:1001E800FBEF00F0020E6CEC01F014EF01F00F5081
:1001F80009E1EF0E0E5CD8A004EF01F006EF01F064
:1002080014EF01F0530E0E5C020E0F58D8B00FEF2A
:1002180001F011EF01F014EF01F0010E6CEC01F0A8
:100228001200F40EF66E020EF76E000EF86E09005C
:10023800F5CF19F000EE60F0500EEE6AE806FDE129
:10024800176A166A156A146A136A126A1A901A9259
:10025800000EF86E00015EEF01F070EC01F054EC56
:1002680001F00009D8A43BEF01F03DEF01F033EFB6
:1002780001F0C4CF17F0C3CF16F016C00CF017C0AA
:100288000DF0120078EC01F03F0EC116999099928A
:10029800C29AF80EC016C08E870EC016B88012001B
:1002A800C2B259EF01F05CEF01F0010E5DEF01F011
:1002B800000E1200000E6CEC01F0A6EC00F043EF0B
:1002C80000F0D580D582D584D596D59AD59C1200D4
:1002D8000C6E0CC018F01200C280C282120046ECEC
:0D02E80001F0120018501200C29012000127
:020000040020DA
:08000000FFFFFFFFFFFFFFFF00
:020000040030CA
:0E000000FFC80F3E3C9D85FF0FC00FE00F4074
:00000001FF
