:0400000049EF00F0D4
:100008004582FACF07F0FBCF08F0E1CF09F0E2CF45
:100018000AF0D9CF0BF0DACF0CF0F3CF0DF0F4CF14
:100028000EF0F29EF28C7C0ED6601DEF00F01FEFF2
:1000380000F021EF00F07C0ED66EE10ED76027EFBE
:1000480000F029EF00F02BEF00F0E10ED76EF2A4DC
:1000580030EF00F032EF00F035EF00F096EC02F0F0
:10006800F294F28EF28C0EC0F4FF0DC0F3FF0CC0B8
:10007800DAFF0BC0D9FF0AC0E2FF09C0E1FF08C0E0
:0E008800FBFF07C0FAFF4592110076EF04F06F
:1003000000203E5741544552494E4720504C414EE3
:1003100054533C000053797374656D20496E6974C1
:1003200069616C2E2E2E0000203E434845434B4908
:100330004E47204D4F4953543C000020506C616E95
:1003400074205761746572696E670000203E4944ED
:100350004C452053544154453C00000077EF02F0D7
:1003600062EC05F02CEC04F020EE35F010EE1BF002
:10037000070EDBCFE3FFE806FCE220EE2DF010EEE7
:1003800023F0070EDBCFE3FFE806FCE21B0E116E45
:10039000000E126EFAEC02F0230E116E000E126EB9
:1003A000FAEC02F099EC04F037EC03F044EC05F0C1
:1003B000010E116E010E73EC03F03B0E136E030E73
:1003C000146E01EC04F0010E116E020E73EC03F0DA
:1003D000150E136E030E146E01EC04F0030E1A6E6C
:1003E000080E196E770EE82EFED7192EFCD71A2E9E
:1003F000FAD700F06CEC05F0010E5AEC05F095EF21
:1004000002F044EC05F0010E116E010E73EC03F0E6
:100410004C0E136E030E146E01EC04F012EF02F09A
:1004200050EC05F06AEC05F0E806D8B41AEF02F0DB
:100430001CEF02F010EF02F095EF02F044EC05F033
:10044000010E116E010E73EC03F0010E136E030E1C
:10045000146E01EC04F02FEF02F04BEC05F06AECA7
:1004600005F0020AD8B437EF02F039EF02F02DEFB1
:1004700002F095EF02F044EC05F0010E116E010E52
:1004800073EC03F0280E136E030E146E01EC04F0EF
:1004900055EC05F00B0E1A6E260E196E5E0EE82E48
:1004A000FED7192EFCD71A2EFAD71CEC05F011C076
:1004B0002BF012C02CF0E90E2B5CFD0E2C58D8A0AE
:1004C00064EF02F066EF02F06AEF02F0030E2C6EAA
:1004D000E80E2B6E2BC010F02CC011F0A4EC03F032
:1004E00095EF02F0000E5AEC05F095EF02F06AEC81
:1004F00005F0196E1A6A1A50000AD8B482EF02F099
:1005000072EF02F01950000AD8B4B0EF01F0010AFE
:10051000D8B401EF02F0030AD8B41EEF02F0010ACA
:10052000D8B43BEF02F072EF02F01200000E066E3C
:100530000650080D650EF324D96E000EF420DA6E15
:10054000DE2A000EDD220650080D600EF324D96E5F
:10055000000EF420DA6E0650080D650EF324E16EED
:10056000000EF420E26EDE50E65CDE50E658D8A0C5
:10057000BCEF02F0BEEF02F0F0EF02F00650080D03
:10058000620EF324D96E000EF420DA6EDE50DE1017
:10059000D8B4CDEF02F0CFEF02F0F0EF02F006504A
:1005A000080D650EF324D96E000EF420DA6E000EED
:1005B000DE6E000EDD6E0650080D620EF324D96E5D
:1005C000000EF420DA6E02D8F0EF02F00500FA6EA9
:1005D000DE50FD6EDE50FE6EF850FF6EFA501200D7
:1005E000062A040E0664F7EF02F0F9EF02F098EF26
:1005F00002F01200050E436000EF03F002EF03F07B
:1006000036EF03F020EE02F01150D9261250DA2214
:10061000DE50DE10D8B40FEF03F011EF03F036EF29
:1006200003F011C0D9FF12C0DAFFDE50DE10D8B4DB
:100630001CEF03F01EEF03F036EF03F011C0D9FFFB
:1006400012C0DAFF4350080D600EF324E16E000E75
:10065000F420E26E070EDBCFE3FFE806FCE211C0F8
:100660000FF012C010F027EC05F0432A1200000E24
:10067000936E939A9398000ED3EC03F04E0E116E86
:10068000EB0EE82EFED7112EFCD700F0A60EE82EBA
:10069000FED700D0030E05EC05F00D0E116EFC0E1A
:1006A000E82EFED7112EFCD7030E05EC05F0640EE4
:1006B000E82EFED7030E05EC05F0020E05EC05F062
:1006C000020E05EC05F0080E05EC05F0000E05EC39
:1006D00005F00C0E05EC05F0000E05EC05F0060E1D
:1006E00005EC05F01200126E1204D8A47AEF03F0A4
:1006F0007CEF03F08BEF03F011507F0F156E153870
:100700000F0B146E15500F0B136E145005EC05F003
:10071000135005EC05F0020E1218D8A492EF03F066
:1007200094EF03F0A3EF03F01150BF0F156E1538CF
:100730000F0B146E15500F0B136E145005EC05F0D3
:10074000135005EC05F01200530E105C020E115808
:10075000D8A0ADEF03F0AFEF03F0B4EF03F0020E5B
:100760005AEC05F0D2EF03F0115009E1EF0E105CE6
:10077000D8A0BDEF03F0BFEF03F0CFEF03F0530EAF
:10078000105C020E1158D8B0C8EF03F0CAEF03F0A6
:10079000CFEF03F0010E5AEC05F0D2EF03F0010E9B
:1007A0005AEC05F012000F6E0FA0D9EF03F0DBEF4B
:1007B00003F0DEEF03F08180DFEF03F081900FA202
:1007C000E4EF03F0E6EF03F0E9EF03F08182EAEFF4
:1007D00003F081920FA4EFEF03F0F1EF03F0F4EFD9
:1007E00003F08184F5EF03F081940FA6FAEF03F094
:1007F000FCEF03F0FFEF03F0818600EF04F0819639
:100800001200000E186E000E176E17EF04F017504E
:100810001324156E18501420166E15C0F6FF16C05E
:10082000F7FF0800F55052EC04F0174A182A175049
:100830001324156E18501420166E15C0F6FF16C03E
:10084000F7FF0800F5500009D8A429EF04F02BEFBA
:1008500004F007EF04F01200000E0F6E0F50080DA9
:10086000620EF324D96E000EF420DA6E000EDE6EF6
:10087000000EDD6E0F50080D650EF324D96E000ECC
:10088000F420DA6E000EDE6E000EDD6E000E436E9A
:100890000F2A040E0F644FEF04F051EF04F02EEF17
:1008A00004F01200126E12500F0B106E1250F00B6B
:1008B000116E818A11380F0BD3EC03F08188A60EDC
:1008C000E82EFED700D08198A60EE82EFED700D0E5
:1008D0001050D3EC03F08188A60EE82EFED700D08E
:1008E0008198A60EE82EFED700D01200780EF66E84
:1008F0000A0EF76E000EF86E00EE2DF010EE10F0FE
:100900000900F5CFEEFFE550E150FAE100EE60F0AE
:10091000280EEE6AE806FDE100EE3DF0070EEE6AF5
:10092000E806FDE145904592000EF86E0001B1EF3A
:1009300004F094929494959295908B828B848C82FF
:100940008C800B0E106E260E0F6E5E0EE82EFED7FC
:100950000F2EFCD7102EFAD78B928B948C928C9002
:100960001200D388D38AD38C68EC05F0D08EF28A3B
:10097000F18411EC05F0F28EF28C000E5AEC05F0C9
:10098000AEEC01F0C0EF04F049EF00F065EC05F0CB
:1009900032EC05F00009D8A4D0EF04F0D2EF04F057
:1009A000C8EF04F0C4CF42F0C3CF41F041C00FF014
:1009B00042C010F012006EEC05F03F0EC116999087
:1009C0009992C29AF80EC016C08E870EC016B880D3
:1009D000120070EC05F0020AD8B4F1EF04F0F3EF66
:1009E00004F0F6EF04F0030E5EEC05F0120070EC7C
:1009F00005F0020AD8A4FFEF04F001EF05F004EFC0
:100A000005F0010E5EEC05F01200106E819A105098
:100A1000D3EC03F08188A60EE82EFED700D0819893
:100A20001200D580D592D584D596D59AD59C7C0ECA
:100A3000D66EE10ED76E1200C6EC04F00FC013F0B4
:100A400010C014F013C011F014C012F0120020EE08
:100A500005F00F50D9261050DA22000EDE6E000E7F
:100A6000DD6E1200C2B237EF05F03AEF05F0010E6D
:100A70003BEF05F0000E12000500EE09000000003B
:100A80000A00D20900000000000E05EC05F0010E7E
:100A900005EC05F012008C808B928B948C921200E6
:100AA0008B848B928C908C9212008C828B928B9484
:100AB0008C9012000F6E0FC044F01200016E01C046
:100AC00044F01200DBEC04F01200C280C28212007B
:100AD000D59E120044501200D58E1200C290120012
:040AE000445012006C
:020000040020DA
:08000000FFFFFFFFFFFFFFFF00
:020000040030CA
:0E000000FFC80D3E3C9D81FF0FC00FE00F407A
:00000001FF
