:040000005EEF00F0BF
:100008003982FACF08F0FBCF09F0E1CF0AF0E2CF4E
:100018000BF0D9CF0CF0DACF0DF0F3CF0EF0F4CF10
:100028000FF0F29EF28C7C0ED6601DEF00F01FEFF1
:1000380000F021EF00F07C0ED66EE10ED76027EFBE
:1000480000F029EF00F02BEF00F0E10ED76EF2A4DC
:1000580030EF00F032EF00F035EF00F0A0EC02F0E6
:10006800F294F2A23AEF00F03CEF00F04AEF00F011
:10007800BCEC05F0020AD8B444EF00F046EF00F0FB
:1000880049EF00F0020EAAEC05F0F292F28EF28C23
:100098000FC0F4FF0EC0F3FF0DC0DAFF0CC0D9FF8C
:1000A8000BC0E2FF0AC0E1FF09C0FBFF08C0FAFF6E
:0800B8003992110080EF04F001
:1003000000203E5741544552494E4720504C414EE3
:1003100054533C0000203E434845434B494E472040
:100320004D4F4953543C000020506C616E7420576F
:1003300061746572696E67000053797374656D202E
:10034000496E69742E2E2E0000203E49444C4520F3
:0903500053544154453C000000E7
:10035A0081EF02F0AEEC05F036EC04F099EC05F012
:10036A00BDEC04F041EC03F0260E126E000E136E83
:10037A0004EC03F01E0E126E000E136E04EC03F072
:10038A0083EC05F0010E126E010E7DEC03F0280ECF
:10039A00146E030E156E0BEC04F0010E126E020EB3
:1003AA007DEC03F0390E146E030E156E0BEC04F09F
:1003BA000B0E1B6E260E1A6E5E0EE82EFED71A2E36
:1003CA00FCD71B2EFAD7B8EC05F0010EA6EC05F007
:1003DA009FEF02F0530E45EC05F083EC05F0010E99
:1003EA00126E010E7DEC03F0490E146E030E156EAB
:1003FA000BEC04F0A2EC05F08FEC05F0B6EC05F07E
:10040A00E806D8B40BEF02F00DEF02F003EF02F0AA
:10041A009FEF02F01E0E106E000E116E5BEC05F0DF
:10042A00260E106E000E116E5BEC05F0570E45ECB1
:10043A0005F09EEC05F083EC05F0010E126E010E3C
:10044A007DEC03F0010E146E030E156E0BEC04F036
:10045A0031EF02F08AEC05F0B6EC05F0020AD8B4E6
:10046A0039EF02F03BEF02F02FEF02F09FEF02F0BC
:10047A004D0E45EC05F083EC05F0010E126E010EEF
:10048A007DEC03F0150E146E030E156E0BEC04F0E2
:10049A00A2EC05F094EC05F00B0E1B6E260E1A6EFC
:1004AA005E0EE82EFED71A2EFCD71B2EFAD750EC7A
:1004BA0005F012C01CF013C01DF0E90E1C5CFD0E05
:1004CA001D58D8A06BEF02F06DEF02F071EF02F049
:1004DA00030E1D6EE80E1C6E1C5045EC05F01CC088
:1004EA0011F01DC012F0AEEC03F09FEF02F0000E07
:1004FA00A6EC05F09FEF02F0B6EC05F01A6E1B6A47
:10050A001B50000AD8B48CEF02F07CEF02F01A50AC
:10051A00000AD8B4AFEF01F0010AD8B4EFEF01F046
:10052A00030AD8B40FEF02F0010AD8B43DEF02F083
:10053A007CEF02F01200000E076E0750080D650EE0
:10054A00F324D96E000EF420DA6EDE2A000EDD22C4
:10055A000750080D600EF324D96E000EF420DA6EEF
:10056A000750080D650EF324E16E000EF420E26ECA
:10057A00DE50E65CDE50E658D8A0C6EF02F0C8EFBF
:10058A0002F0FAEF02F00750080D620EF324D96E5A
:10059A00000EF420DA6EDE50DE10D8B4D7EF02F087
:1005AA00D9EF02F0FAEF02F00750080D650EF324B6
:1005BA00D96E000EF420DA6E000EDE6E000EDD6ECD
:1005CA000750080D620EF324D96E000EF420DA6E7D
:1005DA0002D8FAEF02F00500FA6EDE50FD6EDE5028
:1005EA00FE6EF850FF6EFA501200072A040E0764D6
:1005FA0001EF03F003EF03F0A2EF02F01200050E81
:10060A0037600AEF03F00CEF03F040EF03F020EE3F
:10061A0002F01250D9261350DA22DE50DE10D8B476
:10062A0019EF03F01BEF03F040EF03F012C0D9FFFC
:10063A0013C0DAFFDE50DE10D8B426EF03F028EF3D
:10064A0003F040EF03F012C0D9FF13C0DAFF3750AE
:10065A00080D600EF324E16E000EF420E26E070E20
:10066A00DBCFE3FFE806FCE212C010F013C011F082
:10067A005BEC05F0372A1200000E936E939A93985A
:10068A00000EDDEC03F04E0E126EEB0EE82EFED7D6
:10069A00122EFCD700F0A60EE82EFED700D0030ECD
:1006AA002EEC05F00D0E126EFC0EE82EFED7122E61
:1006BA00FCD7030E2EEC05F0640EE82EFED7030ECF
:1006CA002EEC05F0020E2EEC05F0020E2EEC05F0D3
:1006DA00080E2EEC05F0000E2EEC05F00C0E2EEC9A
:1006EA0005F0000E2EEC05F0060E2EEC05F01200B9
:1006FA00136E1304D8A484EF03F086EF03F095EF8A
:10070A0003F012507F0F166E16380F0B156E165027
:10071A000F0B146E15502EEC05F014502EEC05F04C
:10072A00020E1318D8A49CEF03F09EEF03F0ADEF6E
:10073A0003F01250BF0F166E16380F0B156E1650B7
:10074A000F0B146E15502EEC05F014502EEC05F01C
:10075A001200530E115C020E1258D8A0B7EF03F024
:10076A00B9EF03F0BEEF03F0020EA6EC05F0DCEFE2
:10077A0003F0125009E1EF0E115CD8A0C7EF03F0A5
:10078A00C9EF03F0D9EF03F0530E115C020E1258B1
:10079A00D8B0D2EF03F0D4EF03F0D9EF03F0010E93
:1007AA00A6EC05F0DCEF03F0010EA6EC05F0120052
:1007BA00106E10A0E3EF03F0E5EF03F0E8EF03F0AB
:1007CA008180E9EF03F0819010A2EEEF03F0F0EFE1
:1007DA0003F0F3EF03F08182F4EF03F0819210A4A7
:1007EA00F9EF03F0FBEF03F0FEEF03F08184FFEF74
:1007FA0003F0819410A604EF04F006EF04F009EF69
:10080A0004F081860AEF04F081961200000E196E38
:10081A00000E186E21EF04F018501424166E1950A9
:10082A001520176E16C0F6FF17C0F7FF0800F5501F
:10083A005CEC04F0184A192A18501424166E195040
:10084A001520176E16C0F6FF17C0F7FF0800F550FF
:10085A000009D8A433EF04F035EF04F011EF04F0E7
:10086A001200000E106E1050080D620EF324D96E9D
:10087A00000EF420DA6E000EDE6E000EDD6E1050F1
:10088A00080D650EF324D96E000EF420DA6E000E00
:10089A00DE6E000EDD6E000E376E102A040E106436
:1008AA0059EF04F05BEF04F038EF04F01200136E16
:1008BA0013500F0B116E1350F00B126E818A1238FF
:1008CA000F0BDDEC03F08188A60EE82EFED700D0D0
:1008DA008198A60EE82EFED700D01150DDEC03F069
:1008EA008188A60EE82EFED700D08198A60EE82EA3
:1008FA00FED700D01200F60EF66E0A0EF76E000E44
:10090A00F86E00EE1EF010EE10F00900F5CFEEFFC3
:10091A00E550E150FAE100EE60F0280EEE6AE806D2
:10092A00FDE100EE2EF00A0EEE6AE806FDE13990CE
:10093A003992000EF86E0001A3EF04F0D388D38A2F
:10094A00D38C9486B4EC05F0D08EF28AF288F184C6
:10095A003AEC05F0F18C12EC05F0F28EF28C000EF6
:10096A00A6EC05F0ADEC01F0B7EF04F05EEF00F095
:10097A0094929494959295908B828B848C828C809D
:10098A000B0E116E260E106E5E0EE82EFED7102E7E
:10099A00FCD7112EFAD78B928B948C928C901200E2
:1009AA00B1EC05F071EC05F00009D8A4DFEF04F012
:1009BA00E1EF04F0D7EF04F0C4CF33F0C3CF32F045
:1009CA0032C010F033C011F01200BCEC05F0020A7C
:1009DA00D8B4F2EF04F0F4EF04F0FDEF04F01E0EC9
:1009EA00016E000E026E66EC05F0030EAAEC05F02D
:1009FA001200BCEC05F0020AD8A406EF05F008EFD5
:100A0A0005F011EF05F0260E016E000E026E66EC7F
:100A1A0005F0010EAAEC05F01200949C948EAB8EA0
:100A2A00000EB06E330EAF6EAC9CAC8AAC98AC8440
:100A3A00AB9CAB881200BAEC05F03F0EC116999038
:100A4A009992C29AF80EC016C08E870EC016B88048
:100A5A001200116E819A1150DDEC03F08188A60E06
:100A6A00E82EFED700D081981200D580D592D58481
:100A7A00D596D59AD59C7C0ED66EE10ED76E12000D
:100A8A00106E9EA84BEF05F04DEF05F046EF05F00E
:100A9A0010C0ADFF1200D5EC04F010C014F011C064
:100AAA0015F014C012F015C013F0120020EE05F074
:100ABA001050D9261150DA22000EDE6E000EDD6EBD
:100ACA00120020EE05F00150D9260250DA22000E5B
:100ADA00DE6E000EDD6E1200C2B276EF05F079EF1F
:100AEA0005F0010E7AEF05F0000E12000200FC0973
:100AFA00000000000400D40900000000000E2EECE3
:100B0A0005F0010E2EEC05F012008C808B928B946E
:100B1A008C9212008B848B928C908C9212008C8215
:100B2A008B928B948C90120095948C84010E366E65
:100B3A0012008C94000E366E12008C84010E366EF2
:100B4A001200106E10C038F01200016E01C038F0A9
:100B5A00120020EC05F01200C280C2821200D59E5B
:100B6A00120038501200D58E1200C290120038506E
:020B7A00120067
:020000040020DA
:08000000FFFFFFFFFFFFFFFF00
:020000040030CA
:0E000000FFC80D3E3C9D81FF0FC00FE00F407A
:00000001FF
