:040000003BEF00F0E2
:100008001982FACF04F0FBCF05F0D9CF06F0DACF8A
:1000180007F0F29EF28C7C0ED66015EF00F017EF19
:1000280000F019EF00F07C0ED66EE10ED7601FEFDE
:1000380000F021EF00F023EF00F0E10ED76EF2A4FC
:1000480028EF00F02AEF00F02FEF00F0144A152AED
:1000580012EC01F0F294F28EF28C07C0DAFF06C0BF
:10006800D9FF05C0FBFF04C0FAFF19921100D8EFB1
:1000780000F05FEF00F04BEC01F031EC01F038ECF0
:1000880001F0010E44EC01F07DEF00F04EEC01F0C0
:10009800E806D8B452EF00F054EF00F04AEF00F051
:1000A8007DEF00F07EEC00F07DEF00F0000E44ECF8
:1000B80001F07DEF00F04EEC01F00C6E0D6A0D5072
:1000C800000AD8B46AEF00F05AEF00F00C50000AAA
:1000D800D8B43FEF00F0010AD8B44AEF00F0030AA1
:1000E800D8B47DEF00F0010AD8B456EF00F05AEF0B
:1000F80000F01200EFEC00F008C00AF009C00BF0A5
:10010800530E0A5C020E0B58D8A08DEF00F08FEF4B
:1001180000F094EF00F0020E44EC01F0ADEF00F0B7
:100128000B5009E1EF0E0A5CD8A09DEF00F09FEF9D
:1001380000F0ADEF00F0530E0A5C020E0B58D8B079
:10014800A8EF00F0AAEF00F0ADEF00F0010E44ECCC
:1001580001F012000E4A0F2A580E0E1807E1020E7F
:100168000F18D8A4BAEF00F0BCEF00F0C0EF00F011
:10017800000E0F6E000E0E6E000E036E000E026E65
:10018800C8EF00F0024A032A1050025C0350800AAC
:10019800016E1150800A0158D8A0D5EF00F0D7EFB2
:1001A80000F0C6EF00F0120001EE70F011EE90F0D2
:1001B800EE6AE550E150FCE1E250FAE100EE0EF0A3
:1001C8000A0EEE6AE806FDE119901992000EF86E23
:1001D80000012AEF01F048EC01F020EC01F00009E1
:1001E800D8A4F9EF00F0FBEF00F0F1EF00F0C4CF76
:1001F80017F0C3CF16F016C008F017C009F01200A8
:1002080050EC01F03F0EC11699909992C29AF80EDF
:10021800C016C08E870EC016B880120002D81FEF15
:1002280001F00500FA6E1250FD6E1350FE6EF85084
:10023800FF6EFA5012001200C2B225EF01F028EF4B
:1002480001F0010E29EF01F0000E1200000E44EC3F
:1002580001F03DEC00F03BEF00F0D580D582D5846D
:10026800D596D59AD59C12005C0E086E010E096EC3
:100278003FEC01F0120008C012F009C013F01200A0
:10028800086E08C018F01200C280C282120004EC86
:0C02980001F0120018501200C290120079
:020000040020DA
:08000000FFFFFFFFFFFFFFFF00
:020000040030CA
:0E000000FFC80F3E3C9D85FF0FC00FE00F4074
:00000001FF
